{
  "contractName": "Dhruv",
  "abi": [
    {
      "inputs": [],
      "payable": false,
      "stateMutability": "nonpayable",
      "type": "constructor"
    },
    {
      "anonymous": false,
      "inputs": [
        {
          "indexed": true,
          "internalType": "address",
          "name": "tokenOwner",
          "type": "address"
        },
        {
          "indexed": true,
          "internalType": "address",
          "name": "spender",
          "type": "address"
        },
        {
          "indexed": false,
          "internalType": "uint256",
          "name": "tokens",
          "type": "uint256"
        }
      ],
      "name": "Approval",
      "type": "event"
    },
    {
      "anonymous": false,
      "inputs": [
        {
          "indexed": true,
          "internalType": "address",
          "name": "from",
          "type": "address"
        },
        {
          "indexed": true,
          "internalType": "address",
          "name": "to",
          "type": "address"
        },
        {
          "indexed": false,
          "internalType": "uint256",
          "name": "tokens",
          "type": "uint256"
        }
      ],
      "name": "Transfer",
      "type": "event"
    },
    {
      "constant": true,
      "inputs": [
        {
          "internalType": "address",
          "name": "",
          "type": "address"
        }
      ],
      "name": "accounts",
      "outputs": [
        {
          "internalType": "uint256",
          "name": "",
          "type": "uint256"
        }
      ],
      "payable": false,
      "stateMutability": "view",
      "type": "function"
    },
    {
      "constant": true,
      "inputs": [
        {
          "internalType": "address",
          "name": "",
          "type": "address"
        },
        {
          "internalType": "address",
          "name": "",
          "type": "address"
        }
      ],
      "name": "approved",
      "outputs": [
        {
          "internalType": "uint256",
          "name": "",
          "type": "uint256"
        }
      ],
      "payable": false,
      "stateMutability": "view",
      "type": "function"
    },
    {
      "constant": true,
      "inputs": [],
      "name": "decimals",
      "outputs": [
        {
          "internalType": "uint256",
          "name": "",
          "type": "uint256"
        }
      ],
      "payable": false,
      "stateMutability": "view",
      "type": "function"
    },
    {
      "constant": true,
      "inputs": [],
      "name": "name",
      "outputs": [
        {
          "internalType": "string",
          "name": "",
          "type": "string"
        }
      ],
      "payable": false,
      "stateMutability": "view",
      "type": "function"
    },
    {
      "constant": true,
      "inputs": [],
      "name": "owneroftokens",
      "outputs": [
        {
          "internalType": "address",
          "name": "",
          "type": "address"
        }
      ],
      "payable": false,
      "stateMutability": "view",
      "type": "function"
    },
    {
      "constant": true,
      "inputs": [],
      "name": "symbol",
      "outputs": [
        {
          "internalType": "string",
          "name": "",
          "type": "string"
        }
      ],
      "payable": false,
      "stateMutability": "view",
      "type": "function"
    },
    {
      "constant": true,
      "inputs": [],
      "name": "totalsupply",
      "outputs": [
        {
          "internalType": "uint256",
          "name": "",
          "type": "uint256"
        }
      ],
      "payable": false,
      "stateMutability": "view",
      "type": "function"
    },
    {
      "constant": true,
      "inputs": [],
      "name": "owner",
      "outputs": [
        {
          "internalType": "address",
          "name": "",
          "type": "address"
        }
      ],
      "payable": false,
      "stateMutability": "view",
      "type": "function"
    },
    {
      "constant": true,
      "inputs": [],
      "name": "totalSupply",
      "outputs": [
        {
          "internalType": "uint256",
          "name": "",
          "type": "uint256"
        }
      ],
      "payable": false,
      "stateMutability": "view",
      "type": "function"
    },
    {
      "constant": true,
      "inputs": [
        {
          "internalType": "address",
          "name": "tokenowner",
          "type": "address"
        }
      ],
      "name": "balanceOf",
      "outputs": [
        {
          "internalType": "uint256",
          "name": "",
          "type": "uint256"
        }
      ],
      "payable": false,
      "stateMutability": "view",
      "type": "function"
    },
    {
      "constant": false,
      "inputs": [
        {
          "internalType": "address",
          "name": "to",
          "type": "address"
        },
        {
          "internalType": "uint256",
          "name": "tokens",
          "type": "uint256"
        }
      ],
      "name": "transfering",
      "outputs": [
        {
          "internalType": "bool",
          "name": "success",
          "type": "bool"
        }
      ],
      "payable": false,
      "stateMutability": "nonpayable",
      "type": "function"
    },
    {
      "constant": false,
      "inputs": [
        {
          "internalType": "address",
          "name": "from",
          "type": "address"
        },
        {
          "internalType": "uint256",
          "name": "tokens",
          "type": "uint256"
        }
      ],
      "name": "transfer",
      "outputs": [
        {
          "internalType": "bool",
          "name": "success",
          "type": "bool"
        }
      ],
      "payable": false,
      "stateMutability": "nonpayable",
      "type": "function"
    },
    {
      "constant": false,
      "inputs": [
        {
          "internalType": "address",
          "name": "spender",
          "type": "address"
        },
        {
          "internalType": "uint256",
          "name": "tokens",
          "type": "uint256"
        }
      ],
      "name": "approve",
      "outputs": [
        {
          "internalType": "bool",
          "name": "success",
          "type": "bool"
        }
      ],
      "payable": false,
      "stateMutability": "nonpayable",
      "type": "function"
    },
    {
      "constant": true,
      "inputs": [
        {
          "internalType": "address",
          "name": "tokenOwner",
          "type": "address"
        },
        {
          "internalType": "address",
          "name": "spender",
          "type": "address"
        }
      ],
      "name": "allowance",
      "outputs": [
        {
          "internalType": "uint256",
          "name": "",
          "type": "uint256"
        }
      ],
      "payable": false,
      "stateMutability": "view",
      "type": "function"
    },
    {
      "constant": false,
      "inputs": [
        {
          "internalType": "address",
          "name": "from",
          "type": "address"
        },
        {
          "internalType": "address",
          "name": "to",
          "type": "address"
        },
        {
          "internalType": "uint256",
          "name": "tokens",
          "type": "uint256"
        }
      ],
      "name": "transferFrom",
      "outputs": [
        {
          "internalType": "bool",
          "name": "",
          "type": "bool"
        }
      ],
      "payable": false,
      "stateMutability": "nonpayable",
      "type": "function"
    }
  ],
  "bytecode": "0x60806040526040518060400160405280600c81526020017f5361746f73686920536f6e690000000000000000000000000000000000000000815250600090805190602001906200005192919062000147565b506040518060400160405280600381526020017f5344530000000000000000000000000000000000000000000000000000000000815250600190805190602001906200009f92919062000147565b506000600255620f4240600355348015620000b957600080fd5b50600354600560003373ffffffffffffffffffffffffffffffffffffffff1673ffffffffffffffffffffffffffffffffffffffff1681526020019081526020016000208190555033600460006101000a81548173ffffffffffffffffffffffffffffffffffffffff021916908373ffffffffffffffffffffffffffffffffffffffff160217905550620001f6565b828054600181600116156101000203166002900490600052602060002090601f016020900481019282601f106200018a57805160ff1916838001178555620001bb565b82800160010185558215620001bb579182015b82811115620001ba5782518255916020019190600101906200019d565b5b509050620001ca9190620001ce565b5090565b620001f391905b80821115620001ef576000816000905550600101620001d5565b5090565b90565b61129080620002066000396000f3fe608060405234801561001057600080fd5b50600436106100f55760003560e01c806370a0823111610097578063a9059cbb11610066578063a9059cbb1461048a578063c4229b63146104f0578063dd62ed3e14610556578063f4b16045146105ce576100f5565b806370a082311461034757806372dd529b1461039f5780638da5cb5b146103bd57806395d89b4114610407576100f5565b806318160ddd116100d357806318160ddd1461022d57806323b872dd1461024b578063313ce567146102d15780635e5c06e2146102ef576100f5565b8063069e4d7d146100fa57806306fdde0314610144578063095ea7b3146101c7575b600080fd5b610102610646565b604051808273ffffffffffffffffffffffffffffffffffffffff1673ffffffffffffffffffffffffffffffffffffffff16815260200191505060405180910390f35b61014c61066c565b6040518080602001828103825283818151815260200191508051906020019080838360005b8381101561018c578082015181840152602081019050610171565b50505050905090810190601f1680156101b95780820380516001836020036101000a031916815260200191505b509250505060405180910390f35b610213600480360360408110156101dd57600080fd5b81019080803573ffffffffffffffffffffffffffffffffffffffff1690602001909291908035906020019092919050505061070a565b604051808215151515815260200191505060405180910390f35b6102356108be565b6040518082815260200191505060405180910390f35b6102b76004803603606081101561026157600080fd5b81019080803573ffffffffffffffffffffffffffffffffffffffff169060200190929190803573ffffffffffffffffffffffffffffffffffffffff169060200190929190803590602001909291905050506108c8565b604051808215151515815260200191505060405180910390f35b6102d9610b33565b6040518082815260200191505060405180910390f35b6103316004803603602081101561030557600080fd5b81019080803573ffffffffffffffffffffffffffffffffffffffff169060200190929190505050610b39565b6040518082815260200191505060405180910390f35b6103896004803603602081101561035d57600080fd5b81019080803573ffffffffffffffffffffffffffffffffffffffff169060200190929190505050610b51565b6040518082815260200191505060405180910390f35b6103a7610b9a565b6040518082815260200191505060405180910390f35b6103c5610ba0565b604051808273ffffffffffffffffffffffffffffffffffffffff1673ffffffffffffffffffffffffffffffffffffffff16815260200191505060405180910390f35b61040f610ba8565b6040518080602001828103825283818151815260200191508051906020019080838360005b8381101561044f578082015181840152602081019050610434565b50505050905090810190601f16801561047c5780820380516001836020036101000a031916815260200191505b509250505060405180910390f35b6104d6600480360360408110156104a057600080fd5b81019080803573ffffffffffffffffffffffffffffffffffffffff16906020019092919080359060200190929190505050610c46565b604051808215151515815260200191505060405180910390f35b61053c6004803603604081101561050657600080fd5b81019080803573ffffffffffffffffffffffffffffffffffffffff16906020019092919080359060200190929190505050610ed1565b604051808215151515815260200191505060405180910390f35b6105b86004803603604081101561056c57600080fd5b81019080803573ffffffffffffffffffffffffffffffffffffffff169060200190929190803573ffffffffffffffffffffffffffffffffffffffff16906020019092919050505061117e565b6040518082815260200191505060405180910390f35b610630600480360360408110156105e457600080fd5b81019080803573ffffffffffffffffffffffffffffffffffffffff169060200190929190803573ffffffffffffffffffffffffffffffffffffffff169060200190929190505050611205565b6040518082815260200191505060405180910390f35b600460009054906101000a900473ffffffffffffffffffffffffffffffffffffffff1681565b60008054600181600116156101000203166002900480601f0160208091040260200160405190810160405280929190818152602001828054600181600116156101000203166002900480156107025780601f106106d757610100808354040283529160200191610702565b820191906000526020600020905b8154815290600101906020018083116106e557829003601f168201915b505050505081565b600081600560003373ffffffffffffffffffffffffffffffffffffffff1673ffffffffffffffffffffffffffffffffffffffff1681526020019081526020016000205410156107c1576040517f08c379a00000000000000000000000000000000000000000000000000000000081526004018080602001828103825260148152602001807f49742073686f756c64206265206772656174657200000000000000000000000081525060200191505060405180910390fd5b600082116107ce57600080fd5b81600660003373ffffffffffffffffffffffffffffffffffffffff1673ffffffffffffffffffffffffffffffffffffffff16815260200190815260200160002060008573ffffffffffffffffffffffffffffffffffffffff1673ffffffffffffffffffffffffffffffffffffffff168152602001908152602001600020819055508273ffffffffffffffffffffffffffffffffffffffff163373ffffffffffffffffffffffffffffffffffffffff167f8c5be1e5ebec7d5bd14f71427d1e84f3dd0314c0f7b2291e5b200ac8c7c3b925846040518082815260200191505060405180910390a36001905092915050565b6000600354905090565b600081600660008673ffffffffffffffffffffffffffffffffffffffff1673ffffffffffffffffffffffffffffffffffffffff16815260200190815260200160002060003373ffffffffffffffffffffffffffffffffffffffff1673ffffffffffffffffffffffffffffffffffffffff16815260200190815260200160002054101561095357600080fd5b81600560008673ffffffffffffffffffffffffffffffffffffffff1673ffffffffffffffffffffffffffffffffffffffff16815260200190815260200160002054101561099f57600080fd5b81600560008673ffffffffffffffffffffffffffffffffffffffff1673ffffffffffffffffffffffffffffffffffffffff1681526020019081526020016000206000828254039250508190555081600560008573ffffffffffffffffffffffffffffffffffffffff1673ffffffffffffffffffffffffffffffffffffffff1681526020019081526020016000206000828254019250508190555081600660008673ffffffffffffffffffffffffffffffffffffffff1673ffffffffffffffffffffffffffffffffffffffff16815260200190815260200160002060003373ffffffffffffffffffffffffffffffffffffffff1673ffffffffffffffffffffffffffffffffffffffff168152602001908152602001600020600082825403925050819055508273ffffffffffffffffffffffffffffffffffffffff168473ffffffffffffffffffffffffffffffffffffffff167fddf252ad1be2c89b69c2b068fc378daa952ba7f163c4a11628f55a4df523b3ef846040518082815260200191505060405180910390a3600190509392505050565b60025481565b60056020528060005260406000206000915090505481565b6000600560008373ffffffffffffffffffffffffffffffffffffffff1673ffffffffffffffffffffffffffffffffffffffff168152602001908152602001600020549050919050565b60035481565b600033905090565b60018054600181600116156101000203166002900480601f016020809104026020016040519081016040528092919081815260200182805460018160011615610100020316600290048015610c3e5780601f10610c1357610100808354040283529160200191610c3e565b820191906000526020600020905b815481529060010190602001808311610c2157829003601f168201915b505050505081565b600081600560008573ffffffffffffffffffffffffffffffffffffffff1673ffffffffffffffffffffffffffffffffffffffff168152602001908152602001600020541015610ce0576040517f08c379a000000000000000000000000000000000000000000000000000000000815260040180806020018281038252603181526020018061122b6031913960400191505060405180910390fd5b6000600560008573ffffffffffffffffffffffffffffffffffffffff1673ffffffffffffffffffffffffffffffffffffffff168152602001908152602001600020549050828103905080600560008673ffffffffffffffffffffffffffffffffffffffff1673ffffffffffffffffffffffffffffffffffffffff16815260200190815260200160002081905550600060056000600460009054906101000a900473ffffffffffffffffffffffffffffffffffffffff1673ffffffffffffffffffffffffffffffffffffffff1673ffffffffffffffffffffffffffffffffffffffff16815260200190815260200160002054905083810190508060056000600460009054906101000a900473ffffffffffffffffffffffffffffffffffffffff1673ffffffffffffffffffffffffffffffffffffffff1673ffffffffffffffffffffffffffffffffffffffff16815260200190815260200160002081905550600460009054906101000a900473ffffffffffffffffffffffffffffffffffffffff1673ffffffffffffffffffffffffffffffffffffffff168573ffffffffffffffffffffffffffffffffffffffff167fddf252ad1be2c89b69c2b068fc378daa952ba7f163c4a11628f55a4df523b3ef866040518082815260200191505060405180910390a360019250505092915050565b60008160056000600460009054906101000a900473ffffffffffffffffffffffffffffffffffffffff1673ffffffffffffffffffffffffffffffffffffffff1673ffffffffffffffffffffffffffffffffffffffff168152602001908152602001600020541015610f8d576040517f08c379a000000000000000000000000000000000000000000000000000000000815260040180806020018281038252603181526020018061122b6031913960400191505060405180910390fd5b600060056000600460009054906101000a900473ffffffffffffffffffffffffffffffffffffffff1673ffffffffffffffffffffffffffffffffffffffff1673ffffffffffffffffffffffffffffffffffffffff16815260200190815260200160002054905082810390508060056000600460009054906101000a900473ffffffffffffffffffffffffffffffffffffffff1673ffffffffffffffffffffffffffffffffffffffff1673ffffffffffffffffffffffffffffffffffffffff168152602001908152602001600020819055506000600560008673ffffffffffffffffffffffffffffffffffffffff1673ffffffffffffffffffffffffffffffffffffffff168152602001908152602001600020549050838101905080600560008773ffffffffffffffffffffffffffffffffffffffff1673ffffffffffffffffffffffffffffffffffffffff168152602001908152602001600020819055508473ffffffffffffffffffffffffffffffffffffffff16600460009054906101000a900473ffffffffffffffffffffffffffffffffffffffff1673ffffffffffffffffffffffffffffffffffffffff167fddf252ad1be2c89b69c2b068fc378daa952ba7f163c4a11628f55a4df523b3ef866040518082815260200191505060405180910390a360019250505092915050565b6000600660008473ffffffffffffffffffffffffffffffffffffffff1673ffffffffffffffffffffffffffffffffffffffff16815260200190815260200160002060008373ffffffffffffffffffffffffffffffffffffffff1673ffffffffffffffffffffffffffffffffffffffff16815260200190815260200160002054905092915050565b600660205281600052604060002060205280600052604060002060009150915050548156fe5468652073656e6465722063616e6e6f742073656e64206d6f7265207468616e20776861742068652f736865206f776e73a265627a7a723158207a7e548e9d5769678a78cafb46b6a66f5e5001fc33f2c02dbce3a513a30cdf3464736f6c63430005100032",
  "source": "//SPDX-License-Identifier:UNLICENSED\r\n\r\npragma solidity >=0.5.0 <0.9.0;\r\n\r\n//There are 2 ways to implement the ERC20 interface\r\n\r\n//First is to just import the contract that is written by the open Zipplen which is a security company\r\n//if a security company such as Open Zeppelin is providing the community with certified contracts, then,\r\n// It is better leverage the ERC20 token logic creation to a security company, and focus on the contracts for application\r\n\r\n//The second way is to just copy paste the interface that is written in the ethereum community\r\n\r\ninterface ERC20Interface { \r\n    function totalSupply() external view returns (uint);\r\n    function balanceOf(address tokenOwner) external view returns (uint balance); \r\n    function transfering(address to, uint tokens) external returns (bool success);\r\n\r\n    function allowance(address tokenOwner, address spender) external view returns (uint remaining);\r\n    function approve(address spender, uint tokens) external returns (bool success);\r\n    function transferFrom(address from, address to, uint tokens) external returns (bool success);\r\n\r\n    event Transfer(address indexed from, address indexed to, uint tokens);\r\n    event Approval(address indexed tokenOwner, address indexed spender, uint tokens);\r\n}\r\n\r\n//Hence these are all the functions that we need to implement in our contract.\r\n\r\n//Now this is our smart contract which is going to implement all these functions \r\ncontract Dhruv is ERC20Interface{\r\n\r\n    //This is the name of the tokens\r\n    string public name=\"Satoshi Soni\";\r\n\r\n    //This is the symbol of the tokens\r\n    string public symbol=\"SDS\";\r\n\r\n    //This is the decimal places upto which the token can be divided\r\n    uint public decimals=0;\r\n\r\n    //This is the total supply of the tokens that will be available\r\n    //There are 1 million tokens\r\n    uint public totalsupply=1000000;\r\n\r\n    //This is the address of the owner of the smart contract\r\n    address public owneroftokens;\r\n\r\n    //This is the mapping which maps each address to the amount of tokens that the address holds\r\n    mapping(address=>uint) public accounts;\r\n\r\n    constructor() public{\r\n        accounts[msg.sender]=totalsupply;\r\n        owneroftokens=msg.sender;\r\n    }\r\n\r\n    function owner() public view returns(address)\r\n    {\r\n        return msg.sender;\r\n    }\r\n\r\n\r\n    //Now we are going to implement the totalSupply function which returns the total supply of the tokens\r\n    function totalSupply() public view returns(uint)\r\n    {\r\n        return totalsupply;\r\n    }\r\n\r\n    //This function implements the balanceOf function\r\n    function balanceOf(address tokenowner) public view returns(uint)\r\n    {\r\n        return accounts[tokenowner];\r\n    }\r\n\r\n    //This function implements the transfer function\r\n    //In this function we are transferring the tokens from the owner of the smart contract to the sender\r\n     function transfering(address to, uint tokens) public returns (bool success)\r\n     {\r\n         require(accounts[owneroftokens]>=tokens,\"The sender cannot send more than what he/she owns\");\r\n         uint change1=accounts[owneroftokens];\r\n         change1-=tokens;\r\n         accounts[owneroftokens]=change1;\r\n\r\n        uint change2=accounts[to];\r\n         change2+=tokens;\r\n         accounts[to]=change2;\r\n        //  accounts[owneroftokens]=accounts[owneroftokens]-tokens;\r\n        //  accounts[to]=accounts[to]+tokens;\r\n         emit Transfer(owneroftokens, to, tokens);\r\n         return true;\r\n     }\r\n\r\n     //In this function we are transferring the tokens from the sender to the owner\r\n     function transfer(address from,uint tokens) public returns(bool success)\r\n     {\r\n         require(accounts[from]>=tokens,\"The sender cannot send more than what he/she owns\");\r\n         uint change1=accounts[from];\r\n         change1-=tokens;\r\n         accounts[from]=change1;\r\n\r\n        uint change2=accounts[owneroftokens];\r\n         change2+=tokens;\r\n         accounts[owneroftokens]=change2;\r\n        //  accounts[owneroftokens]=accounts[owneroftokens]-tokens;\r\n        //  accounts[to]=accounts[to]+tokens;\r\n         emit Transfer(from,owneroftokens , tokens);\r\n         return true;\r\n     }\r\n\r\n     mapping(address=>mapping(address=>uint)) public approved;\r\n\r\n     //This is the approve function which means that the sender approves the to that he/she can spend this much of money\r\n     //It is like writing a cheque to another person\r\n     function approve(address spender, uint tokens) public returns (bool success)\r\n     {\r\n         require(accounts[msg.sender]>=tokens,\"It should be greater\");\r\n         require(tokens>0);\r\n         approved[msg.sender][spender]=tokens;\r\n         emit Approval(msg.sender, spender, tokens);\r\n         return true;\r\n     }\r\n\r\n     function allowance(address tokenOwner, address spender) public view returns (uint)\r\n    {\r\n        return approved[tokenOwner][spender];\r\n    }\r\n\r\n    function transferFrom(address from,address to,uint tokens) public returns(bool)\r\n    {\r\n        //We first need to check in the approved mapping whether the tokens are greater than the argument\r\n        require(approved[from][msg.sender]>=tokens);\r\n        require(accounts[from]>=tokens);\r\n\r\n        accounts[from]-=tokens;\r\n        accounts[to]+=tokens;\r\n        approved[from][msg.sender]-=tokens;\r\n\r\n        emit Transfer(from,to,tokens);\r\n        return true;\r\n\r\n    }\r\n\r\n\r\n}\r\n\r\n",
  "sourcePath": "C:\\Users\\Bhaskar\\Desktop\\web 3.0\\truffle\\crypto-exchange_project\\contracts\\Tokens.sol",
  "compiler": {
    "name": "solc",
    "version": "0.5.16+commit.9c3226ce.Emscripten.clang"
  },
  "schemaVersion": "3.4.10",
  "updatedAt": "2022-09-20T10:30:16.541Z",
  "devdoc": {
    "methods": {}
  },
  "userdoc": {
    "methods": {}
  }
}