{
  "contractName": "EthSwap",
  "abi": [
    {
      "inputs": [
        {
          "internalType": "address",
          "name": "othercontract",
          "type": "address"
        }
      ],
      "payable": false,
      "stateMutability": "nonpayable",
      "type": "constructor"
    },
    {
      "constant": true,
      "inputs": [],
      "name": "owneroftokens",
      "outputs": [
        {
          "internalType": "address",
          "name": "",
          "type": "address"
        }
      ],
      "payable": false,
      "stateMutability": "view",
      "type": "function"
    },
    {
      "constant": true,
      "inputs": [],
      "name": "testvariable",
      "outputs": [
        {
          "internalType": "uint256",
          "name": "",
          "type": "uint256"
        }
      ],
      "payable": false,
      "stateMutability": "view",
      "type": "function"
    },
    {
      "constant": true,
      "inputs": [],
      "name": "token",
      "outputs": [
        {
          "internalType": "contract Dhruv",
          "name": "",
          "type": "address"
        }
      ],
      "payable": false,
      "stateMutability": "view",
      "type": "function"
    },
    {
      "constant": true,
      "inputs": [
        {
          "internalType": "address",
          "name": "",
          "type": "address"
        }
      ],
      "name": "tokenstotransfer",
      "outputs": [
        {
          "internalType": "uint256",
          "name": "",
          "type": "uint256"
        }
      ],
      "payable": false,
      "stateMutability": "view",
      "type": "function"
    },
    {
      "constant": true,
      "inputs": [],
      "name": "gettestvariable",
      "outputs": [
        {
          "internalType": "uint256",
          "name": "",
          "type": "uint256"
        }
      ],
      "payable": false,
      "stateMutability": "view",
      "type": "function"
    },
    {
      "constant": true,
      "inputs": [
        {
          "internalType": "address",
          "name": "account",
          "type": "address"
        }
      ],
      "name": "getbalance",
      "outputs": [
        {
          "internalType": "uint256",
          "name": "",
          "type": "uint256"
        }
      ],
      "payable": false,
      "stateMutability": "view",
      "type": "function"
    },
    {
      "constant": true,
      "inputs": [],
      "name": "tp",
      "outputs": [
        {
          "internalType": "uint256",
          "name": "",
          "type": "uint256"
        }
      ],
      "payable": false,
      "stateMutability": "pure",
      "type": "function"
    },
    {
      "constant": false,
      "inputs": [],
      "name": "buytokens",
      "outputs": [
        {
          "internalType": "uint256",
          "name": "",
          "type": "uint256"
        }
      ],
      "payable": true,
      "stateMutability": "payable",
      "type": "function"
    },
    {
      "constant": false,
      "inputs": [],
      "name": "tp3",
      "outputs": [
        {
          "internalType": "bool",
          "name": "",
          "type": "bool"
        }
      ],
      "payable": true,
      "stateMutability": "payable",
      "type": "function"
    },
    {
      "constant": false,
      "inputs": [],
      "name": "tp2",
      "outputs": [
        {
          "internalType": "uint256",
          "name": "",
          "type": "uint256"
        }
      ],
      "payable": true,
      "stateMutability": "payable",
      "type": "function"
    },
    {
      "constant": true,
      "inputs": [],
      "name": "getBalancesofsmartcontract",
      "outputs": [
        {
          "internalType": "uint256",
          "name": "",
          "type": "uint256"
        }
      ],
      "payable": false,
      "stateMutability": "view",
      "type": "function"
    },
    {
      "constant": true,
      "inputs": [
        {
          "internalType": "address",
          "name": "get",
          "type": "address"
        }
      ],
      "name": "getBalances",
      "outputs": [
        {
          "internalType": "uint256",
          "name": "",
          "type": "uint256"
        }
      ],
      "payable": false,
      "stateMutability": "view",
      "type": "function"
    },
    {
      "constant": false,
      "inputs": [
        {
          "internalType": "uint256",
          "name": "tokenstosell",
          "type": "uint256"
        },
        {
          "internalType": "address payable",
          "name": "sender",
          "type": "address"
        }
      ],
      "name": "selltokens",
      "outputs": [],
      "payable": true,
      "stateMutability": "payable",
      "type": "function"
    }
  ],
  "bytecode": "0x6080604052600060025534801561001557600080fd5b50604051610bdb380380610bdb8339818101604052602081101561003857600080fd5b8101908080519060200190929190505050806000806101000a81548173ffffffffffffffffffffffffffffffffffffffff021916908373ffffffffffffffffffffffffffffffffffffffff1602179055506000809054906101000a900473ffffffffffffffffffffffffffffffffffffffff1673ffffffffffffffffffffffffffffffffffffffff1663069e4d7d6040518163ffffffff1660e01b815260040160206040518083038186803b1580156100f057600080fd5b505afa158015610104573d6000803e3d6000fd5b505050506040513d602081101561011a57600080fd5b8101908080519060200190929190505050600160006101000a81548173ffffffffffffffffffffffffffffffffffffffff021916908373ffffffffffffffffffffffffffffffffffffffff16021790555050610a608061017b6000396000f3fe6080604052600436106100c25760003560e01c8063944de2461161007f578063e645827f11610059578063e645827f14610324578063ef967ba51461034f578063f97a5f481461037a578063fc0c546a146103a5576100c2565b8063944de246146102765780639af545c8146102a1578063c84aae17146102bf576100c2565b8063069e4d7d146100c75780631db7f9951461011e57806353737f2714610183578063625f9513146101d157806368116177146101ef5780637cb4d2a214610254575b600080fd5b3480156100d357600080fd5b506100dc6103fc565b604051808273ffffffffffffffffffffffffffffffffffffffff1673ffffffffffffffffffffffffffffffffffffffff16815260200191505060405180910390f35b34801561012a57600080fd5b5061016d6004803603602081101561014157600080fd5b81019080803573ffffffffffffffffffffffffffffffffffffffff169060200190929190505050610422565b6040518082815260200191505060405180910390f35b6101cf6004803603604081101561019957600080fd5b8101908080359060200190929190803573ffffffffffffffffffffffffffffffffffffffff16906020019092919050505061043a565b005b6101d961063b565b6040518082815260200191505060405180910390f35b3480156101fb57600080fd5b5061023e6004803603602081101561021257600080fd5b81019080803573ffffffffffffffffffffffffffffffffffffffff169060200190929190505050610853565b6040518082815260200191505060405180910390f35b61025c61093a565b604051808215151515815260200191505060405180910390f35b34801561028257600080fd5b5061028b61094b565b6040518082815260200191505060405180910390f35b6102a9610954565b6040518082815260200191505060405180910390f35b3480156102cb57600080fd5b5061030e600480360360208110156102e257600080fd5b81019080803573ffffffffffffffffffffffffffffffffffffffff16906020019092919050505061095d565b6040518082815260200191505060405180910390f35b34801561033057600080fd5b5061033961097e565b6040518082815260200191505060405180910390f35b34801561035b57600080fd5b50610364610984565b6040518082815260200191505060405180910390f35b34801561038657600080fd5b5061038f61098c565b6040518082815260200191505060405180910390f35b3480156103b157600080fd5b506103ba610996565b604051808273ffffffffffffffffffffffffffffffffffffffff1673ffffffffffffffffffffffffffffffffffffffff16815260200191505060405180910390f35b600160009054906101000a900473ffffffffffffffffffffffffffffffffffffffff1681565b60036020528060005260406000206000915090505481565b600360008273ffffffffffffffffffffffffffffffffffffffff1673ffffffffffffffffffffffffffffffffffffffff168152602001908152602001600020548211156104ef576040517f08c379a000000000000000000000000000000000000000000000000000000000815260040180806020018281038252601d8152602001807f54686520746f6b656e7320617265206e6f742073756666696369656e7400000081525060200191505060405180910390fd5b6000670de0b6b3a7640000830290506064818161050857fe5b0490508173ffffffffffffffffffffffffffffffffffffffff166108fc829081150290604051600060405180830381858888f19350505050158015610551573d6000803e3d6000fd5b506000809054906101000a900473ffffffffffffffffffffffffffffffffffffffff1673ffffffffffffffffffffffffffffffffffffffff1663a9059cbb33856040518363ffffffff1660e01b8152600401808373ffffffffffffffffffffffffffffffffffffffff1673ffffffffffffffffffffffffffffffffffffffff16815260200182815260200192505050602060405180830381600087803b1580156105fa57600080fd5b505af115801561060e573d6000803e3d6000fd5b505050506040513d602081101561062457600080fd5b810190808051906020019092919050505050505050565b6000806106473361095d565b9050803411156106a2576040517f08c379a000000000000000000000000000000000000000000000000000000000815260040180806020018281038252604c8152602001806109bc604c913960600191505060405180910390fd5b6000349050670de0b6b3a764000081816106b857fe5b04905060648102905080600360003373ffffffffffffffffffffffffffffffffffffffff1673ffffffffffffffffffffffffffffffffffffffff1681526020019081526020016000208190555060008060009054906101000a900473ffffffffffffffffffffffffffffffffffffffff1673ffffffffffffffffffffffffffffffffffffffff1663c4229b6333846040518363ffffffff1660e01b8152600401808373ffffffffffffffffffffffffffffffffffffffff1673ffffffffffffffffffffffffffffffffffffffff16815260200182815260200192505050602060405180830381600087803b1580156107af57600080fd5b505af11580156107c3573d6000803e3d6000fd5b505050506040513d60208110156107d957600080fd5b810190808051906020019092919050505090506001151581151514610849576040517f08c379a0000000000000000000000000000000000000000000000000000000008152600401808060200182810382526024815260200180610a086024913960400191505060405180910390fd5b6006935050505090565b6000806000809054906101000a900473ffffffffffffffffffffffffffffffffffffffff1673ffffffffffffffffffffffffffffffffffffffff166370a08231846040518263ffffffff1660e01b8152600401808273ffffffffffffffffffffffffffffffffffffffff1673ffffffffffffffffffffffffffffffffffffffff16815260200191505060206040518083038186803b1580156108f457600080fd5b505afa158015610908573d6000803e3d6000fd5b505050506040513d602081101561091e57600080fd5b8101908080519060200190929190505050905080915050919050565b600060056002819055506001905090565b60006005905090565b60006006905090565b60008173ffffffffffffffffffffffffffffffffffffffff16319050919050565b60025481565b600047905090565b6000600254905090565b6000809054906101000a900473ffffffffffffffffffffffffffffffffffffffff168156fe5468652062616c616e6365206f66207468652073656e646572206d7573742062652067726561746572207468616e207468652076616c75652073656e6420696e7369646520746865206d7367546865207472616e73666572206f6620746f6b656e73206973207375636365737366756ca265627a7a72315820c6fbb399f2698e06964a581eb13a63d47a07d1da6cf3e142ee0387d21ee1833764736f6c63430005100032",
  "source": "//SPDX-License-Identifier:MIT\nimport './Tokens.sol';\n\npragma solidity >=0.5.0 <0.9.0;\ncontract EthSwap{\n    //First we are going to have an instance variable which is the instance of the deployed token\n    Dhruv public token;\n    address public owneroftokens;\n\n    //This is the test variable\n    uint public testvariable=0;\n\n    function gettestvariable() public view returns(uint)\n    {\n        return testvariable;\n    }\n\n    //Mapping for the tokens to transfer\n    mapping(address=>uint) public tokenstotransfer;\n\n    //With the help of this constructor we will be able to interact with the tokens smart contract instance\n    constructor(address othercontract) public\n    {\n        token=Dhruv(othercontract);\n        owneroftokens=token.owneroftokens();\n    }\n\n    function getbalance(address account) public view returns(uint){\n        uint balance=token.balanceOf(account);\n        return balance;\n    }\n\n    function tp() public pure returns(uint)\n    {\n        return 5;\n    }\n\n\n    //Now this is the function where one can buy the tokens\n    //Intially as all the tokens are available with the owner\n    //We will transfer the tokens from owner of the smart contract to the person calling it\n\n    function buytokens() public payable returns(uint)\n    {\n        uint balance=getBalances(msg.sender);\n        require(msg.value<=balance,\"The balance of the sender must be greater than the value send inside the msg\");\n        //This means that the ethers are received in the ethswap smart contract and now we need to assign the tokens to the sender account\n        uint value=msg.value;\n        value/=1000000000000000000;\n        value*=100;\n        tokenstotransfer[msg.sender]=value;\n        bool success=token.transfering(msg.sender,value);\n        require(success==true,\"The transfer of tokens is successful\");\n        return 6;\n        \n    }\n\n    function tp3() external payable returns(bool)\n    {\n        testvariable=5;\n        return true;\n    }\n    function tp2() external payable returns(uint)\n    {\n        return 6;\n    }\n\n\n    //This function returns the ether balance of the smart contract EthSwap\n    function getBalancesofsmartcontract() public view returns(uint)\n    {\n        return address(this).balance;\n    }\n\n    function getBalances(address get) public view returns(uint)\n    {\n        return address(get).balance;\n    }\n\n    //Now this is the function for selling the tokens\n    //In this function the user calls the function and passes the tokens that the user has\n    //In exchange of the tokens that the user passed all these tokens are send to the owner and in exchange the user gets the ethers\n    //The ethers he/she gets depends on the amount of tokens\n    function selltokens(uint tokenstosell,address payable sender) public payable {\n        // address payable seller;\n        //The transfer of the tokens can only take place with the help of the instance of the token\n        //However here we are going to transfer the ethers from the smart contract to the the account\n        require(tokenstosell<=tokenstotransfer[sender],\"The tokens are not sufficient\");\n\n        //In our case the etherstotransfer part will be dynamic\n        //It will change depending upon the graph function\n        uint etherstotransfer=tokenstosell*1000000000000000000;\n        etherstotransfer/=100;\n        sender.transfer(etherstotransfer);\n        token.transfer(msg.sender,tokenstosell);\n        // seller.transfer(tokenstosell/100);\n    }\n\n}\n",
  "sourcePath": "C:\\Users\\Bhaskar\\Desktop\\web 3.0\\truffle\\crypto-exchange_project\\contracts\\EthSwap.sol",
  "compiler": {
    "name": "solc",
    "version": "0.5.16+commit.9c3226ce.Emscripten.clang"
  },
  "schemaVersion": "3.4.10",
  "updatedAt": "2022-09-20T10:30:16.533Z",
  "devdoc": {
    "methods": {}
  },
  "userdoc": {
    "methods": {}
  }
}